:1000000045C0000060C000005EC000005CC0000091
:100010005AC0000058C0000056C0000054C0000084
:1000200052C0000050C000004EC000004CC0000094
:100030004AC0000048C0000046C0000044C00000A4
:1000400042C0000040C000003EC000003CC00000B4
:100050003AC0000038C0000036C0000034C00000C4
:1000600032C0000030C000002EC000002CC00000D4
:100070002AC0000028C0000026C0000024C00000E4
:1000800022C0000020C000001EC0000011241FBEBE
:10009000CFEFD0E1DEBFCDBF11E0A0E0B1E0E2E400
:1000A000F7E000E00BBF02C007900D92A830B10747
:1000B000D9F721E0A8E0B1E001C01D92AE30B2074F
:1000C000E1F7ACD03CC39CCFCF92DF92EF92FF928E
:1000D0000F931F93CF93DF937B01CB01880F991F61
:1000E000880F991F0BD26C01C0E0D0E018C08E01C0
:1000F000000F111F000F111F0C0D1D1DBE010D2E35
:10010000000C880B990B0BD120E030E048E751E45C
:10011000A0D0F80160837183828393832196CE15EA
:10012000DF052CF3DF91CF911F910F91FF90EF909E
:10013000DF90CF900895AF92BF92CF92DF92EF926F
:10014000FF920F931F93CF93DF936C017B01CB0141
:10015000880F991F880F991FD1D18C0120E030E0C2
:1001600016C0C901880F991F880F991FF801E80F61
:10017000F91FD601A80FB91F8D919D910D90BC91CB
:10018000A02D80839183A283B3832F5F3F4F2E15D1
:100190003F053CF341E050E02EC0EA01CC0FDD1FEB
:1001A000CC0FDD1FCC0DDD1DFA01E150F04CEE0F40
:1001B000FF1FEE0FFF1FE00FF11F60817181828131
:1001C00093815A012FEFA21AB20AF501EE0FFF1F19
:1001D000EE0FFF1FE00FF11F20813181428153811B
:1001E00038D020E030E040E05FE325D168837983B8
:1001F0008A839B83A5019701215031094217530738
:1002000064F2C80113D2DF91CF911F910F91FF903B
:10021000EF90DF90CF90BF90AF900895609106016E
:100220007091070180910801909109014DDF609163
:1002300006017091070180910801909109017BDF0F
:100240008091080190910901F1D180E090E008953A
:100250005058BB27AA270ED0B4C0A5D030F0AAD0E2
:1002600020F031F49F3F11F41EF49AC00EF4E09593
:10027000E7FB90C0E92FB6D080F3BA176207730787
:100280008407950718F071F49EF5CEC00EF4E09542
:100290000B2EBA2FA02D0B01B90190010C01CA0140
:1002A000A0011124FF27591B99F0593F50F4503EEB
:1002B00068F11A16F040A22F232F342F4427585FDD
:1002C000F3CF469537952795A795F0405395C9F7F5
:1002D0007EF41F16BA0B620B730B840BBAF09150AD
:1002E000A1F0FF0FBB1F661F771F881FC2F70EC04C
:1002F000BA0F621F731F841F48F48795779567951F
:10030000B795F7959E3F08F0B3CF9395880F08F007
:100310009927EE0F979587950895E89409C097FB64
:100320003EF490958095709561957F4F8F4F9F4FCC
:100330009923A9F0F92F96E9BB279395F695879510
:1003400077956795B795F111F8CFFAF4BB0F11F4D3
:1003500060FF1BC06F5F7F4F8F4F9F4F16C088237A
:1003600011F096E911C0772321F09EE8872F762FB0
:1003700005C0662371F096E8862F70E060E02AF0F1
:100380009A95660F771F881FDAF7880F96958795DD
:1003900097F9089597F99F6780E870E060E0089505
:1003A0009FEF80EC089500240A941616170618068D
:1003B0000906089500240A94121613061406050669
:1003C0000895092E0394000C11F4882352F0BB0FFA
:1003D00040F4BF2B11F460FF04C06F5F7F4F8F4F5D
:1003E0009F4F089557FD9058440F551F59F05F3F98
:1003F00071F04795880F97FB991F61F09F3F79F047
:1004000087950895121613061406551FF2CF4695C8
:10041000F1DF08C0161617061806991FF1CF86954A
:100420007105610508940895E894BB27662777272E
:10043000CB0197F908950BD0C4CFB5DF28F0BADF10
:1004400018F0952309F0A6CFABCF1124EECFCADF69
:10045000A0F3959FD1F3950F50E0551F629FF001D7
:10046000729FBB27F00DB11D639FAA27F00DB11D30
:10047000AA1F649F6627B00DA11D661F829F2227B9
:10048000B00DA11D621F739FB00DA11D621F839F40
:10049000A00D611D221F749F3327A00D611D231F16
:1004A000849F600D211D822F762F6A2F11249F5764
:1004B00050408AF0E1F088234AF0EE0FFF1FBB1F87
:1004C000661F771F881F91505040A9F79E3F510526
:1004D00070F060CFAACF5F3FECF3983EDCF38695D7
:1004E00077956795B795F795E7959F5FC1F7FE2BD1
:1004F000880F911D9695879597F908950F931F93EF
:10050000CF93DF938230910510F482E090E0E09188
:100510000C01F0910D0120E030E0A0E0B0E0309758
:1005200019F1408151810281138148175907C8F0A0
:100530008417950769F4109731F012960C9312976F
:1005400013961C9327C000930C0110930D0122C039
:100550002115310519F04217530718F49A01BD010E
:10056000EF01DF01F801DBCF21153105F9F0281B80
:10057000390B2430310580F48A819B816115710526
:1005800021F0FB019383828304C090930D0180933B
:100590000C01FE01329644C0FE01E20FF31F81936D
:1005A000919322503109398328833AC020910A015E
:1005B00030910B01232B41F4209102013091030172
:1005C00030930B0120930A01209100013091010129
:1005D0002115310541F42DB73EB7409104015091EA
:1005E0000501241B350BE0910A01F0910B01E21784
:1005F000F307A0F42E1B3F0B2817390778F0AC0146
:100600004E5F5F4F2417350748F04E0F5F1F509322
:100610000B0140930A018193919302C0E0E0F0E066
:10062000CF01DF91CF911F910F910895CF93DF9369
:10063000009709F481C0FC01329713821282A091C5
:100640000C01B0910D01109781F420813181820F4E
:10065000931F20910A0130910B012817390751F59A
:10066000F0930B01E0930A0167C0ED0120E030E058
:10067000CE17DF0740F44A815B819E014115510589
:10068000F1F0EA01F5CFD383C28340815181840F19
:10069000951FC817D90759F488819981840F951F30
:1006A0000296918380838A819B8193838283211523
:1006B000310529F4F0930D01E0930C013DC0E901EF
:1006C000FB83EA8349915991C40FD51FEC17FD07AD
:1006D00061F480819181840F951F0296E9019983CD
:1006E0008883828193819B838A83E0E0F0E0129685
:1006F0008D919C911397009719F0FD01DC01F7CFC4
:100700008D919C9111979D012E5F3F4F820F931FFA
:1007100020910A0130910B012817390769F43097AD
:1007200029F410920D0110920C0102C01382128262
:10073000B0930B01A0930A01DF91CF910895F89433
:02074000FFCFE9
:0807420000000E0120000A0076
:00000001FF
