:1000000045C0000060C000005EC000005CC0000091
:100010005AC0000058C0000056C0000054C0000084
:1000200052C0000050C000004EC000004CC0000094
:100030004AC0000048C0000046C0000044C00000A4
:1000400042C0000040C000003EC000003CC00000B4
:100050003AC0000038C0000036C0000034C00000C4
:1000600032C0000030C000002EC000002CC00000D4
:100070002AC0000028C0000026C0000024C00000E4
:1000800022C0000020C000001EC0000011241FBEBE
:10009000CFEFD0E1DEBFCDBF11E0A0E0B1E0E8E5F9
:1000A000F3E000E00BBF02C007900D92A830B1074B
:1000B000D9F721E0A8E0B1E001C01D92A631B20756
:1000C000E1F71BD047C19CCFCF93DF93EB01CB016E
:1000D00020D0AC0120E030E008C0FA01E20FF31FAD
:1000E00098E2920F90832F5F3F4FC217D307ACF770
:1000F000CA01A7D0DF91CF91089560910601709158
:1001000007018091080190910901DEDF80E090E015
:1001100008950F931F93CF93DF938230910510F4CE
:1001200082E090E0E0911401F091150120E030E0D0
:10013000A0E0B0E0309719F1408151810281138134
:1001400048175907C8F08417950769F4109731F0DC
:1001500012960C93129713961C9327C000931401C8
:100160001093150122C02115310519F042175307CC
:1001700018F49A01BD01EF01DF01F801DBCF211571
:100180003105F9F0281B390B2430310580F48A81C0
:100190009B816115710521F0FB019383828304C06B
:1001A0009093150180931401FE01329644C0FE0124
:1001B000E20FF31F819391932250310939832883F1
:1001C0003AC02091120130911301232B41F4209168
:1001D0000201309103013093130120931201209109
:1001E0000001309101012115310541F42DB73EB7D1
:1001F0004091040150910501241B350BE09112013F
:10020000F0911301E217F307A0F42E1B3F0B281700
:10021000390778F0AC014E5F5F4F2417350748F07F
:100220004E0F5F1F509313014093120181939193DE
:1002300002C0E0E0F0E0CF01DF91CF911F910F917C
:100240000895CF93DF93009709F481C0FC013297A2
:1002500013821282A0911401B0911501109781F4BC
:1002600020813181820F931F20911201309113015F
:100270002817390751F5F0931301E093120167C075
:10028000ED0120E030E0CE17DF0740F44A815B81CA
:100290009E0141155105F1F0EA01F5CFD383C283E8
:1002A00040815181840F951FC817D90759F488815F
:1002B0009981840F951F0296918380838A819B8107
:1002C000938382832115310529F4F0931501E0937E
:1002D00014013DC0E901FB83EA8349915991C40FA0
:1002E000D51FEC17FD0761F480819181840F951F64
:1002F0000296E90199838883828193819B838A8313
:10030000E0E0F0E012968D919C911397009719F020
:10031000FD01DC01F7CF8D919C9111979D012E5F1E
:100320003F4F820F931F2091120130911301281724
:10033000390769F4309729F41092150110921401CD
:1003400002C013821282B0931301A0931201DF91B5
:08035000CF910895F894FFCF4E
:080358000000160120000A005C
:00000001FF
